{
  "_format": "hh-sol-artifact-1",
  "contractName": "BBronze",
  "sourceName": "contracts/BColor.sol",
  "abi": [
    {
      "constant": true,
      "inputs": [],
      "name": "getColor",
      "outputs": [
        {
          "internalType": "bytes32",
          "name": "",
          "type": "bytes32"
        }
      ],
      "payable": false,
      "stateMutability": "view",
      "type": "function"
    }
  ],
  "bytecode": "0x6080604052348015600f57600080fd5b5060a68061001e6000396000f3fe6080604052348015600f57600080fd5b506004361060285760003560e01c80639a86139b14602d575b600080fd5b60336049565b6040518082815260200191505060405180910390f35b60007f42524f4e5a45000000000000000000000000000000000000000000000000000090509056fea265627a7a72315820e318ebf3d2c3f28a39fbf568ff9cbcc26d065741ec26321876c41158a63d890464736f6c634300050c0032",
  "linkReferences": {},
  "deployedLinkReferences": {}
}